:020000040C00EE
:100000000008001001020008B1020008B102000857
:10001000B1020008B1020008B102000800000000AF
:10002000000000000000000000000000B102000815
:10003000B102000800000000B1020008650C0008D1
:10004000B1020008B1020008B1020008B1020008C4
:10005000B1020008B1020008B1020008B1020008B4
:10006000B1020008000000000000000000000000D5
:10007000B102000800000000B1020008B10200084F
:10008000B1020008B1020008B1020008B102000884
:10009000B1020008B1020008B1020008B102000874
:1000A000B1020008B1020008B1020008B102000864
:1000B000B1020008B1020008B1020008B102000854
:1000C000B1020008B1020008B1020008B102000844
:1000D000B1020008B1020008B1020008B102000834
:1000E000B1020008B1020008B1020008B102000824
:1000F000B1020008B1020008B1020008B102000814
:10010000B1020008B1020008B1020008B102000803
:10011000B1020008B1020008B1020008B1020008F3
:10012000B1020008B1020008B1020008B1020008E3
:10013000B1020008B1020008B1020008B1020008D3
:10014000B1020008B1020008B1020008B1020008C3
:10015000B1020008B1020008B1020008B1020008B3
:10016000000000000000000000000000000000008F
:10017000B1020008B1020008B1020008B102000893
:10018000B1020008B1020008B1020008B102000883
:10019000B1020008B1020008B1020008B102000873
:1001A000B1020008B1020008B1020008B102000863
:1001B000B1020008B1020008B1020008B102000853
:1001C000B1020008B1020008B1020008B102000843
:1001D000B1020008B1020008B102000800000000EE
:1001E000B1020008B1020008B1020008B102000823
:1001F000B102000800000000B10200080000000089
:10020000DFF88CD023488047234C244DAC4209DAD8
:1002100021686268A368043BA2BFC858D050FAE7BF
:100220000C34F3E71E4B1F4CA34208DA19685A68D6
:100230000020043AA4BF8850FBE70833F4E71A48CB
:1002400080471A4880470000E41B000C0000002093
:1002500064000000481C000C00000030000000009A
:10026000E41B000C0008001000000000E41B000C60
:1002700000080010000000006400002014000000CE
:100280000000003000000000000800100000000026
:1002900000080010DD02000848020008780200088B
:1002A0007802000890020008FD0C0008B90B000855
:1002B000FEE7000080B485B000AF78600023FB60EB
:1002C00003E000BFFB680133FB60FA687B689A4279
:1002D000F7D31437BD465DF8047B704798B500AF7F
:1002E000054A4FF0005314460FCB84E80F0000F08E
:1002F00005F800F03BF898BDC4FF002080B483B03F
:1003000000AF72B6164B174A9A60BFF34F8F62B6B2
:10031000134A134BD3F8883043F47003C2F8883083
:100320000F4A0F4B5B6923F0080353610E4B03F533
:10033000805314331B687B607B6823F00F037B6062
:100340007B6843F003037B60074B03F58053143352
:100350007A681A600C37BD465DF8047B704700BFB1
:1003600000ED00E0000000080010005880B500AF6C
:10037000774B1B6803F00103002B0CD1744A744BBC
:100380005B6843F00103536000BF714B1B6803F0CF
:100390000103002BF9D06F4B1B6803F40073002B93
:1003A00009D06C4A6B4B9B6843F40073936041F631
:1003B0004C50FFF77FFF684A674B5B6843F40023AC
:1003C000536040F6C410FFF775FF634A624B5B68E9
:1003D00023F4803323F002035360604B5B6803F027
:1003E0003003002B26D05D4A5C4B5B6823F47023FE
:1003F00023F03003536000F02BF90246584BA3FB67
:1004000002231B0D013B1B045449544A52681343F9
:100410004B60514B0022DA604F4A4F4B5B6823F42C
:100420000033536000BF4C4B1B6803F46073B3F59B
:10043000607FF8D1484A484B5B6843F00103536042
:1004400000BF454B1B6803F00103002BF9D0424A63
:10045000414B5B6843F0100353603F4B414A9A6045
:100460003D4A3D4B5B6843F0400353603A4A3A4B88
:100470005B6823F010035360374A374B5B6843F4E3
:100480008023536000BF344B1B6803F00403002B30
:10049000F9D0314A304B5B6823F00103536000BF51
:1004A0002D4B1B6803F00103002BF9D12E4A2E4B74
:1004B000DB6843F48033D3602B4B00225A612A4B14
:1004C00000221A61284B00221A62274B00225A622E
:1004D000254B0022DA61244B03229A611E4A1E4BEF
:1004E0005B6823F0400353601B4B204A9A6000BFB7
:1004F000194B1B6803F02003002BF9D040F6B830ED
:10050000FFF7D8FE144B1A4A9A6000BF124B1B68C3
:1005100003F02003002BF9D041F29410FFF7CAFE3C
:100520000D4B144A9A6000BF0B4B1B6803F020036D
:10053000002BF9D041F27070FFF7BCFE0E4B052284
:10054000DA60094B00225A6000F018F880BD00BF45
:100550000042005000440050104700500047005037
:100560006BCA5F6B004F130100460050004F07013C
:10057000004F0401004F03016041005080B584B07A
:1005800000AF2F4BDB6803F48033002B3ED02D4BA4
:10059000DB6803F00103002B02D02B4BFB6002E071
:1005A00000F056F8F860274B1B6803F00403002B9B
:1005B00020D0244B9B6803F070631B0E0133BB609B
:1005C000204B9B6803F4FE431B0A01337B601D4BE9
:1005D0009B6803F4FE031B0C01333B60BB683A6865
:1005E00002FB03F3FA68B2FBF3F37A6802FB03F34E
:1005F000FB600DE0134B9B6803F07F0301333B600E
:10060000FA683B68B2FBF3F3FB6001E00E4BFB6062
:100610000B4BDB68DBB20133FA68B2FBF3F3FB6030
:10062000074B1B6903F001030133FA68B2FBF3F3D4
:10063000FB60064AFB6813601037BD4680BD00BFF3
:10064000004600501047005000366E01C0FF0020E9
:1006500080B400AF024B1846BD465DF8047B70477E
:10066000001BB70080B584B000AF7860144B1B68E6
:10067000002B02D1124B134A1A60114B1B68FB600E
:100680007B68033323F003037B600D4B1A687B68A0
:1006900013440D4A934207D2094B1A687B681344EE
:1006A000074A1360FB6806E000F022FB02460C23B9
:1006B00013604FF0FF3318461037BD4680BD00BFB2
:1006C0006400002078000020C0FF002080B400AF4C
:1006D000BD465DF8047B704780B483B000AF002353
:1006E000FB71FB7918460C37BD465DF8047B7047FB
:1006F00080B483B000AF03463960FB7197F90730CF
:10070000002B0ADB0D4997F907303A68D2B2920004
:10071000D2B20B4483F800230AE00949FB7903F0C5
:100720000F03043B3A68D2B29200D2B20B441A765D
:100730000C37BD465DF8047B704700BF00E100E068
:1007400000ED00E080B582B000AF78607B68013BCF
:10075000B3F1807F01D301230FE00A4A7B68013B9C
:1007600053604FF0FF303F21FFF7C2FF054B0022DF
:100770009A60044B07221A60002318460837BD46CA
:1007800080BD00BF10E000E080B483B000AF03463E
:10079000FB71084A074B1B6923F0F80313610549F5
:1007A000044B1A69FB7913430B610C37BD465DF8A6
:1007B000047B70470080024880B483B000AF0346DA
:1007C000FB71084A074B1B6C23F0070313640549B0
:1007D000044B1A6CFB7913430B640C37BD465DF870
:1007E000047B70470080024880B483B000AF0346AA
:1007F000FB71094A084B1B6923F4784313610649CE
:10080000054B1B69FA79120213430B610C37BD4685
:100810005DF8047B704700BF0080024880B483B05D
:1008200000AF0346FB71094A084B1B6C23F07003B1
:1008300013640649054B1B6CFA79120113430B64D0
:100840000C37BD465DF8047B704700BF008002484E
:1008500080B400AF044B5B6A03F002031846BD4648
:100860005DF8047B704700BF0080024880B483B00D
:1008700000AF0346FB71094A084B9B6923F4784398
:1008800093610649054B9B69FA79120213438B6108
:100890000C37BD465DF8047B704700BF00800248FE
:1008A00080B483B000AF0346FB71094A084B5B6C10
:1008B00023F0700353640649054B5B6CFA7912010F
:1008C00013434B640C37BD465DF8047B704700BF93
:1008D0000080024880B483B000AF0346FB71094A30
:1008E000084B9B6923F4780393610649054B9B6988
:1008F000FA79120413438B610C37BD465DF8047B13
:10090000704700BF0080024880B483B000AF034648
:10091000FB71094A084B5B6C23F4E063536406499E
:10092000054B5B6CFA79120213434B640C37BD46DE
:100930005DF8047B704700BF0080024880B483B03C
:1009400000AF0346FB71084A074B1B6923F0F8030D
:1009500013610549044B1A69FB7913430B610C378A
:10096000BD465DF8047B70470081024880B483B0C7
:1009700000AF0346FB71084A074B1B6C23F00703CB
:1009800013640549044B1A6CFB7913430B640C3751
:10099000BD465DF8047B70470081024880B400AF1B
:1009A000034B4FF001125A60BD465DF8047B70475F
:1009B0000081024880B483B000AF0346FB71094A4E
:1009C000084B1B6923F4784313610649054B1B69E7
:1009D000FA79120213430B610C37BD465DF8047BB4
:1009E000704700BF0083024880B483B000AF034665
:1009F000FB71094A084B1B6C23F070031364064912
:100A0000054B1B6CFA79120113430B640C37BD467E
:100A10005DF8047B704700BF0083024880B400AFDC
:100A2000044B5B6A03F002031846BD465DF8047B85
:100A3000704700BF0083024880B483B000AF034614
:100A4000FB71094A084B1B6923F4780313610649BB
:100A5000054B1B69FA79120413430B610C37BD4631
:100A60005DF8047B704700BF0083024880B483B008
:100A700000AF0346FB71094A084B1B6C23F4E0638B
:100A800013640649054B1B6CFA79120213430B647D
:100A90000C37BD465DF8047B704700BF00830248F9
:100AA00080B400AF044B5B6A03F004031846BD46F4
:100AB0005DF8047B704700BF0083024880B483B0B8
:100AC00000AF0346FB71094A084BDB6923F078430A
:100AD000D3610649054BDB69FA7912061343CB61F2
:100AE0000C37BD465DF8047B704700BF008E02489E
:100AF00080B400AF044A044B1B6E23F4004313661A
:100B0000BD465DF8047B7047008E024880B483B018
:100B100000AF0346FB71094A084B1B6923F47803B5
:100B200013610649054B1B69FA79120413430B61E3
:100B30000C37BD465DF8047B704700BF008F02484C
:100B400080B400AF044A044B1B6E23F00403136609
:100B5000BD465DF8047B7047008F024880B400AF4B
:100B6000044B5B6A03F004031846BD465DF8047B42
:100B7000704700BF008F024880B485B000AF786036
:100B80000023FB600DE00023BB6002E0BB68013383
:100B9000BB60BB6841F64B529342F7DDFB68013303
:100BA000FB60FA687B689A42EDDB18461437BD4655
:100BB0005DF8047B704700BF80B582B000AFFFF7DF
:100BC0008BFD0346FB71FB79002B00D0FEE78020F4
:100BD000FFF7B4FE0220FFF7C9FE2820FFF704FE4E
:100BE0000220FFF71BFE2820FFF790FFFFF7A8FF6A
:100BF0002820FFF7DFFE0220FFF7F6FE2820FFF790
:100C00001BFF0220FFF732FF1020FFF72FFE02200C
:100C1000FFF746FE1020FFF751FFFFF769FF102096
:100C2000FFF758FE0220FFF76FFE1020FFF7ACFD24
:100C30000220FFF7C1FD094B1B68094AA2FB0323F1
:100C40005B091846FFF77EFD0346002B00D1FEE747
:100C5000FFBE002318460837BD4680BDC0FF0020F8
:100C60001F85EB5180B500AF1F4B1B6801331E4A37
:100C700013601E4800F070F8FFF7EAFD0346002BF2
:100C800008D1FFF78BFE42F21070FFF775FFFFF7F8
:100C900085FE28E0FFF762FF0346002B08D1FFF72F
:100CA0007DFE42F21070FFF767FFFFF777FE1AE054
:100CB000FFF7B4FE0346002B08D1FFF76FFE42F2A8
:100CC0001070FFF759FFFFF769FE0CE0FFF7E8FE31
:100CD0000346002B07D1FFF761FE42F21070FFF7C9
:100CE0004BFFFFF75BFE80BD680000203C1B000847
:100CF000014B1868704700BF6000002070B50E4BB4
:100D00000E4CE41AA41000251E46A54204D056F845
:100D1000253098470135F8E7FFF7D8FC084C094B18
:100D2000E41AA41000251E46A54204D056F825302A
:100D300098470135F8E770BD64000020640000208A
:100D4000640000206400002002440346934202D065
:100D500003F8011BFAE770470FB40A4B13B51C6880
:100D600024B1A36913B9204600F04EF805AB204624
:100D7000A168049A019300F04DF902B0BDE810405B
:100D800004B0704760000020014900F0A7B800BF20
:100D9000B9180008002310B504460360436083605F
:100DA00081814366C28103614361836119465C307E
:100DB0000822FFF7C9FF054B6362054BA362054B91
:100DC000E362054B2462236310BD00BF6515000874
:100DD00087150008BF150008E315000870B56823E3
:100DE0004D1E5D430E4605F1740100F095F8044672
:100DF00040B1002180E842000C30A06005F168029B
:100E0000FFF7A2FF204670BD836910B5044633BBCF
:100E10008364C3640365124B124A1B688262984262
:100E200004BF0123836100F01FF86060204600F0DA
:100E30001BF8A060204600F017F80421E0600022B3
:100E40006068FFF7A7FFA06809210122FFF7A2FF52
:100E5000E06812210222FFF79DFF0123A36110BD6C
:100E60004C1B0008890D0008F8B51B4B1E68B369C0
:100E7000074613B93046FFF7C7FF4836B4687368B2
:100E8000013B04D4B4F90C5075B16834F8E7336809
:100E90002BB938460421FFF7A1FF306008B136684E
:100EA000ECE70C233B60F8BD4FF6FF73E3810123B1
:100EB000A38165662560A560656025616561A561A2
:100EC00004F15C0029460822FFF73EFF6563A56335
:100ED000A564E5642046F8BD4C1B00082DE9F843E5
:100EE0008046894600F14804002694B1A5686768E9
:100EF000013F0CD4AB89012B07D9B5F90E30013372
:100F000003D040462946C84706436835F0E72468C1
:100F1000EBE73046BDE8F88370B5CC1C24F0030441
:100F200008340C2C38BF0C24002C064603DA0C23A2
:100F30003360002070BD8C42F9D3204A13681046FC
:100F40001946A1B10A68121B0ED40B2A03D90A60F4
:100F50008B188C501FE08B420DBF5A684A685A604C
:100F6000026018BF0B4616E00B464968E9E7144DCE
:100F70002B681BB9304600F0E5FA28603046214660
:100F800000F0E0FA421C0346D1D0C51C25F0030551
:100F900085420AD11C6003F10B001A1D20F00700E6
:100FA000821A0AD05142995070BD3046E91A00F0B9
:100FB000C9FA0130BBD02B46ECE770BD70000020B1
:100FC0006C0000209368013B002B10B5936009DA98
:100FD0009469A34202DBCBB20A2B03D1BDE81040D7
:100FE00000F004BB1368581C10601970C8B210BD23
:100FF000F8B506460F461446D518AC4208D0304620
:1010000014F8011B3A46FFF7DDFF431CF5D100E061
:101010000020F8BD2DE9F0439DB00D4690460393A6
:10102000064618B183690BB9FFF7EEFE754B9D427A
:1010300001D1756808E0744B9D4201D1B56803E0A9
:10104000724B9D4208BFF568AB891C070AD52B6916
:1010500043B10023099320238DF8293030238DF8E4
:101060002A3041E03046294600F026FB0028F0D027
:101070004FF0FF30C2E0039A111D12680391002A5D
:10108000BBBF524243F0020307920792B8BF0493DA
:10109000013423782E2B7BD0DFF8808121784046E5
:1010A000032200F093FC38B1049AC8EB00004023FF
:1010B0008340134304930134217855488DF8281058
:1010C000062204F1010800F081FC002800F0858070
:1010D000504B002B78D1039B073323F007030833D1
:1010E0000393099B3B44099343461C4613F8012B89
:1010F0001AB9B4EB08090ED002E0252AF5D1F8E7B9
:101100003046294642464B46FFF772FF013070D009
:10111000099B4B4409932378002B6AD000234FF09E
:10112000FF3204930793059206938DF853301A9378
:1011300004F101084446DFF8E8902178484605228A
:1011400000F044FC08F10108049B30B1C9EB000039
:101150000122824013430493ECE7D80644BF2022C7
:101160008DF85320190744BF2B228DF85320227885
:101170002A2A80D0079923461C4601332278303A28
:10118000092A03D80A2000FB0121F5E7079180E72F
:1011900063782A2B0AD1039B1A1D1B680392002B2C
:1011A000B8BF4FF0FF330234059375E7611C00228E
:1011B0000C4601312378303B092B03D80A2000FB71
:1011C0000232F5E7059267E703AB0093304604A9C6
:1011D0002A46114BAFF3008007E003AB0093304683
:1011E00004A92A460C4B00F093F8421C07467FF4F2
:1011F00078AFAB895B063FF53BAF09981DB0BDE802
:10120000F08300BF501B0008701B0008901B0008F3
:10121000BA1B000800000000F10F0008B61B000810
:10122000B01B00082DE9F84391461F468A680B69F8
:10123000DDF820809342B8BF1346C9F8003091F81A
:10124000432006460C4612B10133C9F8003023682A
:10125000990642BFD9F800300233C9F8003025683A
:1012600015F006051CD094F843302268003318BFEF
:10127000012392061FD5E1185A1C302081F8430043
:10128000224494F8451082F84310023313E03046AC
:10129000394604F119020123C047013007D0013556
:1012A000E368D9F800209B1A9D42F0DBDBE74FF0A2
:1012B000FF30BDE8F8833046394604F14302C047A9
:1012C0000130F4D02268D9F80050E36802F0060239
:1012D000042A08BF5D1B2269A3680CBF25EAE575D7
:1012E00000259342C4BF9B1AED184FF00009A94591
:1012F0000ADA3046394604F11A020123C0470130A8
:10130000D5D009F10109F2E70020BDE8F88300001B
:101310002DE9FF410C461746227E6E2A9846064666
:101320000A9B01F1430100F0A98012D8632A23D05F
:101330000AD8002A00F0B680582A40F0C58084F808
:101340004520DFF8F8E151E0642A1ED0692A1CD05C
:10135000BAE0732A00F0AA8009D86F2A2BD0702A2D
:1013600040F0B280226842F02002226039E0752A03
:1013700021D0782A35D0A7E01A68111D19601368AA
:1013800084F8423004F14205A2E020681A6810F0A7
:10139000800F03D0101D1860136805E04506F9D5CD
:1013A000101D1860B2F90030002B3BDA2D225B4291
:1013B00084F8432036E020681A6810F0800F03D0CC
:1013C000101D1860136804E04006F9D5101D186060
:1013D0001388227EDFF864E16F2A0CBF08220A22FC
:1013E0001CE07822DFF858E184F84520226818686C
:1013F00012F0800F00F104051D6001D0036802E0C7
:101400005506FBD50388D00744BF42F02002226076
:101410001BB9226822F0200222601022002084F8EA
:10142000430002E0DFF814E10A226568A560002DA0
:10143000A2BF206820F00400206003B965B10D460A
:10144000B3FBF2F002FB10331EF8033005F8013D48
:1014500003460028F4D100E00D46082A0BD123688A
:10146000DA0708D5236962689A42DEBF302305F89F
:10147000013C05F1FF35491B21612EE025681A6802
:10148000606915F0800F03D0151D1D60136808E01A
:1014900015F0400F02F104051D60136801D018809B
:1014A00000E01860002323610D4616E01A68111D44
:1014B0001960156862682846002100F087FA08B1B3
:1014C000401B6060636804E004F1420584F8422038
:1014D00001232361002384F84330CDF80080304697
:1014E000214603AA3B46FFF79DFE013002D14FF093
:1014F000FF301FE0304639462A462369C047013095
:10150000F5D023689B0705D4E068039B9842B8BFD9
:1015100018460FE00025E368039A9B1A9D42F3DA10
:101520003046394604F119020123C0470130DED0AC
:101530000135F0E704B0BDE8F08100BFC11B000831
:10154000D21B000838B5064C002305460846236028
:10155000FFF788F8431C02D1236803B12B6038BD24
:101560007400002010B50C46B1F90E1000F082FA9C
:101570000028ABBF636DA3891B1823F48053ACBF55
:101580006365A38110BD2DE9F0411D468B89DB0504
:1015900007460C46164605D5B1F90E100022022367
:1015A00000F0B4F9A389B4F90E1023F48053A38199
:1015B000384632462B46BDE8F04100F06BB810B516
:1015C0000C46B1F90E1000F0A1F9431CA38915BF18
:1015D000606523F4805343F48053A38118BFA38133
:1015E00010BDB1F90E1000F0D3B8000070B50D4673
:1015F0001446064618B183690BB9FFF705FC224B68
:101600009C4201D1746808E0204B9C4201D1B4682F
:1016100003E01F4B9C4208BFF468A369A360A38941
:101620001A0709D523693BB123682069181A636931
:101630009842EDB20FDB08E03046214600F03CF85E
:101640000028F1D04FF0FF3070BD3046214600F049
:1016500033F90028F6D1A368013BA36023685A1C24
:1016600022601D7063690130984204D0A389DB07B2
:1016700007D50A2D05D13046214600F01DF9002876
:10168000E0D1284670BD00BF501B0008701B000849
:10169000901B000838B5074C05460020206008461E
:1016A00011461A4600F042FA431C02D1236803B1E6
:1016B0002B6038BD74000020314B70B51D680646A4
:1016C0000C4625B1AB6913B92846FFF79DFB2D4B9E
:1016D0009C4201D16C6808E02B4B9C4201D1AC6864
:1016E00003E02A4B9C4208BFEC68A3899AB2110719
:1016F0001DD4D50602D40922326038E0500712D535
:10170000616B41B104F14403994202D0304600F0CC
:101710006DF900236363A38923F02403A3810023CD
:10172000636023692360A38943F00803A3812369CD
:101730004BB9A38903F42073B3F5007F03D030467F
:10174000214600F0F5F8A38913F0010205D000222C
:10175000A26062695242A26103E0990758BF6269C0
:10176000A26022694AB903F0800080B230B143F030
:101770004003A3814FF0FF3070BD002070BD00BF5B
:1017800060000020501B0008701B0008901B000820
:1017900038B5064C002305460846236000F09EF944
:1017A000431C02D1236803B12B6038BD74000020B4
:1017B0008A892DE9F041054610070C4657D44B683D
:1017C000002B02DC0B6C002B18DDE66AB6B102F4CC
:1017D0008052002392B22F682B600AB1626D10E034
:1017E000216A28460123B047411C024609D12B68D3
:1017F0003BB11D2B01D0162B47D12F600020BDE837
:10180000F081A3895B0705D56368D21A636B0BB1BE
:10181000236CD21AE66A216A00232846B047461C88
:10182000A38905D12A681AB11D2A01D0162A19D117
:1018300000226260D9042269226004D5421C01D1D1
:101840002B6803B96065616B2F600029D6D004F165
:101850004403994202D0284600F0C8F80020606393
:10186000BDE8F08143F04003A381BDE8F0810F693A
:10187000002FC3D093070E6808BF4B690F6018BFD5
:101880000023C7EB06088B6012E0A38943F04003F6
:10189000A3814FF0FF30BDE8F0812846216AA66A97
:1018A0003A464346B0470028EFDD0744C0EB08083E
:1018B000B8F1000FF1DCA1E738B50B6905460C461D
:1018C000DBB118B183690BB9FFF79EFA0C4B9C4250
:1018D00001D16C6808E00B4B9C4201D1AC6803E07D
:1018E000094B9C4208BFEC68B4F90C302BB1284678
:1018F0002146BDE83840FFF75BBF002038BD00BF80
:10190000501B0008701B0008901B000838B5074CDE
:10191000054600202060084611461A4600F0F6F8F9
:10192000431C02D1236803B12B6038BD7400002032
:10193000F0B58B899D0791B006460C4626D4B1F9C7
:101940000E10002909DAA38913F0800F4FF000056B
:1019500014BF40274FF480670DE001AA00F09CF807
:101960000028F0DB029D05F47045A5F500514D42BD
:101970004D414FF4806730463946FFF7CDFA60B9E4
:10198000A3899A051DD443F00203A38104F1470300
:10199000236023610123636113E00B4BB362A389CE
:1019A000206043F08003A381206167614DB1304620
:1019B000B4F90E1000F082F818B1A38943F00103C6
:1019C000A38111B0F0BD00BF890D000810B5C9B2E8
:1019D00002449042034606D01C788C4200F101007C
:1019E000F7D1184610BD002010BD000030B5002909
:1019F0003DD051F8042C0B1F1D49002AB8BF9B187D
:101A00000A680C4612B95A600B6030BD93420DD281
:101A100019685818904201BF5A5852181A60426803
:101A20005A60236030BD994203D80A4651680029A4
:101A3000F9D1146815199D420AD11B682344D018A6
:101A40008842136013D10868034413604B680DE0AB
:101A500002D90C23036030BD1C681819884204BFEA
:101A600008684968596004BF00191860536030BDA8
:101A70007000002038B5074C05460020206008465D
:101A800011461A4600F04AF8431C02D1236803B1FC
:101A90002B6038BD7400002038B5074C0023054684
:101AA00008461146236000F021F8431C02D1236848
:101AB00003B12B6038BD00BF7400002038B5064C60
:101AC000002305460846236000F018F8431C02D1A5
:101AD000236803B12B6038BD74000020024B5822EC
:101AE0001A604FF0FF30704774000020024B5822FC
:101AF0001A604FF0FF30704774000020024B5822EC
:101B00001A600020704700BF74000020024B58226A
:101B10001A604FF0FF30704774000020024B5822CB
:101B20001A604FF0FF30704774000020024B5822BB
:101B30001A604FF0FF3070477400002068656C6CCD
:101B40006F20776F726C640043000000000000207B
:101B50000000000000000000000000000000000085
:101B60000000000000000000000000000000000075
:101B70000000000000000000000000000000000065
:101B80000000000000000000000000000000000055
:101B90000000000000000000000000000000000045
:101BA0000000000000000000000000000000000035
:101BB000232D302B2000686C4C0065666745464736
:101BC00000303132333435363738394142434445B9
:101BD0004600303132333435363738396162636428
:041BE0006566000036
:101BE40000000000501B0008701B0008901B000838
:101BF40000000000000000000000000000000000E1
:101C0400481B000800000000000000000000000065
:101C140000000000000000000000000000000000C0
:101C240000000000000000000000000000000000B0
:101C340000000000000000000000000000000000A0
:041C4400000000207C
:0400000508000201EC
:00000001FF
